S01500005A485F323032335F31315F30362E73726563C1
S113000045C0000060C000005EC000005CC000008D
S11300105AC0000058C0000056C0000054C0000080
S113002052C0000050C000004EC000004CC0000090
S11300306EC1000048C0000046C0000020C200009D
S113004042C0000040C000003EC000003CC00000B0
S11300503AC0000038C0000036C0000034C00000C0
S113006032C0000030C000002EC000002CC00000D0
S11300702AC0000028C0000026C0000024C00000E0
S113008022C0000020C000001EC0000011241FBEBA
S1130090CFEFD0E1DEBFCDBF11E0A0E0B1E0E6EBF1
S11300A0F7E000E00BBF02C007900D92AA3AB10737
S11300B0D9F721E0AAEAB1E001C01D92AF3BB20733
S11300C0E1F761D276C39CCFE4E6F0E08081807EE4
S11300D080830895809163008F71B1F0843071F052
S11300E028F4813099F0823039F004C0883041F02E
S11300F0803141F080E00BC082E009C083E007C09A
S113010084E005C085E003C080E001C081E09091F7
S1130110BA01891719F08093BA01089580E008950F
S1130120E2E6F0E08081877F80838FE39FE101979F
S1130130F1F700C000008081886080838FE39FE135
S11301400197F1F700C000008081877F80838FE3EF
S11301509FE10197F1F700C000000895CF93DF936A
S1130160C82FE2E6F0E080818B7F808380818D7FE1
S11301708083D1B18C2F807F83B9D2DF20E1C29FED
S1130180C001112483B9CCDFD3B9DF91CF91089595
S113019082B1806F82B9E1E6F0E08081886080837B
S11301A080818260808380818460808383B1806267
S11301B083B9B6DFB5DFB4DF88E2D0DF88E2CEDF13
S11301C088E2CCDF8CE0CADF81E0C8CF0895CF930A
S11301D0DF93C82FE2E6F0E080818B7F808380810B
S11301E082608083D1B18C2F807F83B999DF20E135
S11301F0C29FC001112483B993DFD3B9DF91CF919A
S11302000895CF93DF93EC0102C0E1DF219688814A
S11302108111FBCFDF91CF910895CF93DF9300D06D
S113022000D0CDB7DEB7603108F06FE090E8998375
S113023090EC9A8390E99B8390ED9C83E1E0F0E05D
S1130240EC0FFD1FE80FF11D8081860F87DF0F90F3
S11302500F900F900F90DF91CF91089580EF87BB9F
S113026081BB0895982F9295907F98BB82BB089587
S1130270CF939091B801890FC82FC37060E0892F84
S1130280CCDF80E2A4DF60E08C2FC7DF8EE39FDF4A
S1130290C093B801CF91089561E080E0BEDF8CE6A1
S11302A091E0AFDF61E17AE780E091E0F3C1089586
S11302B060E070E080E090E0EDD180E0D3DF61E0C9
S11302C080E0ABDF88E791E09CCF0895CF93DF9384
S11302D0EB012091B5013091B601820F931FFC010F
S11302E08081C0DF21978091B5019091B601C81734
S11302F0D90729F41092B6011092B50105C00196F0
S11303009093B6018093B501DF91CF9108951F9228
S11303100F920FB60F9211240BB60F922F933F93A7
S11303204F935F936F937F938F939F93AF93BF93F9
S1130330EF93FF936FE070E080E091E0C7DFFF91FF
S1130340EF91BF91AF919F918F917F916F915F9149
S11303504F913F912F910F900BBE0F900FBE0F90B6
S11303601F9018950F931F93CF938C0130D1C82FF2
S11303708F3F39F1833239F12ADF8091B3019091B3
S1130380B401FC01E255FE4FC0838430910511F0A5
S1130390CA3281F4FC01E255FE4F10828EEA91E0EC
S11303A0B0D1F801918380831092B4011092B3010B
S11303B081E00AC001969093B4018093B30180E078
S11303C003C080E001C080E0CF911F910F91089598
S11303D0CF93DF9300D000D000D0CDB7DEB78091AB
S11303E0B701813051F41092B7018091BB01909113
S11303F0BC019093AD018093AC018091AA019091CE
S1130400AB01883C910569F51092AB011092AA01E9
S113041061E081E002DF4AE0BE016F5F7F4F8091BF
S1130420AC019091AD018AD1CE010196EADE8091B2
S1130430AC019091AD012091BD013091BE018217B4
S1130440930749F48091BB019091BC019093AD0155
S11304508093AC010BC001979093AD018093AC01E4
S113046005C001969093AB018093AA0126960FB61E
S1130470F894DEBF0FBECDBFDF91CF9108951F92D8
S11304800F920FB60F9211240BB60F922F933F9336
S11304904F935F936F937F938F939F93AF93BF9388
S11304A0EF93FF9395DFFF91EF91BF91AF919F91F0
S11304B08F917F916F915F914F913F912F910F9009
S11304C00BBE0F900FBE0F901F90189561E081E056
S11304D0A4DE83E991E095DE61E081E09EDE84E8BC
S11304E091E08FDE8DEB91E03DDF8130D9F761E063
S11304F094DE83E991E085DE61E081E08EDE8BE8C5
S113050091E07FDE8BEB91E02DDF8130D9F72091F4
S1130510BD013091BE018091BB019091BC012817AF
S11305203907A4F661E081E078DE81E991E069DED3
S113053081E08093B7016DE770E080E890E073C0DC
S1130540089560E070E080E090E06DD061E081E0CB
S113055064DE8FE991E055CE08958091B801882337
S113056019F0813019F0089597CE0895AFCF08950A
S11305708091B801882319F0813019F0089598CE3C
S11305800895DFCF08956ADE1ED002DE9DDDA2DD70
S1130590EFE3FFE13197F1F700C00000823061F032
S11305A018F4813031F0F3CF833049F0843049F0CE
S11305B0EECF81E05DDEEBCF8FEF5ADEE8CFCDDF0B
S11305C0E6CFD6DFE4CF84B3886784BB089598E090
S11305D0E0E015C095BB83B38770AFE1BEE411972B
S11305E0F1F700C00000863081F021E02E0F853045
S11305F049F022E02E0F833039F0ED5F990F9134EA
S113060048F303C0E22F01C0E22F8091B901E8173B
S113061039F0E093B901F0E0E15FFE4F8081089585
S113062080911B01089520E030E010C0F901EE0F25
S1130630FF1FEE0FFF1FE20FF31FEC5BFE4F408125
S113064051814817590729F02F5F3F4F2830310552
S11306506CF3F901EE0FFF1FEE0FFF1F2E0F3F1F6C
S1130660F901EC5BFE4F828190E09C01220F331F65
S1130670220F331F9381892F90E0880F991F948153
S1130680822B892B886083BF12BE82E087BF61BF43
S11306907894089520E030E010C0F901EE0FFF1FB8
S11306A0EE0FFF1FE20FF31FE45EFE4F4081518106
S11306B04817590729F02F5F3F4F283031056CF355
S11306C0F901EE0FFF1FEE0FFF1F2E0F3F1FF90161
S11306D0E45EFE4F828190E09C01220F331F220FC3
S11306E0331F9381892F90E0880F991F9481822B67
S11306F0892B88608EBD80E187BF7BBD6ABD7894FD
S11307000895FC0188279927E89421912032E9F380
S1130710293010F02E30C8F32B3239F02D3231F459
S1130720689403C015D0820F911D219120532A3063
S1130730C8F31EF4909581959F4F0895BB274A30C6
S113074031F4992322F4BDE2909581959F4F09C01D
S11307507AE0979F902D879F802D910D1124089505
S1130760BB27FB015527AA27880F991FAA1FA41787
S113077010F0A41B83955051B9F7A05DAA3308F07B
S1130780A95DA193009779F7B111B1931192CB01AF
S113079000C0DC01FC01672F71917723E1F73297E8
S11307A004C07C916D9370836291AE17BF07C8F348
S10907B00895F894FFCF48
S11307B60103070F1E3C78F0783C1E0F0703013136
S11307C632333435363738392A3023FF00000000F7
S11307D600010000000108000001004000000101C2
S11307E600010100000004010001FFFF010100FEF9
S11307F6FF010101000000000001000000010800E3
S113080600010020000001014000010000800001F9
S11308160001000101010000040101014C6564208E
S113082672756E6E696E67004C65642073746F70C2
S11308367065640053746172743A0053746F703A4D
S113084600202020202020202020202020200053AB
S10D0856544F5020202020202000E1
S9030000FC
