S01500005A485F323032335F31315F30362E73726563C1
S113000045C0000060C000005EC000005CC000008D
S11300105AC0000058C0000056C0000054C0000080
S113002052C0000050C000004EC000004CC0000090
S11300304AC0000048C0000046C00000B4C100002F
S113004042C0000040C000003EC000003CC00000B0
S11300503AC0000038C0000036C0000034C00000C0
S113006032C0000030C000002EC000002CC00000D0
S11300702AC0000028C0000026C0000024C00000E0
S113008022C0000020C000001EC0000011241FBEBA
S1130090CFEFD0E1DEBFCDBF11E0A0E0B1E0ECE5F1
S11300A0F6E000E00BBF02C007900D92AC35B1073B
S11300B0D9F721E0ACE5B1E001C01D92AF36B2073B
S11300C0E1F7EBD1C9C29CCFE4E6F0E08081807E09
S11300D080830895809163008F71B1F0843071F052
S11300E028F4813099F0823039F004C0883041F02E
S11300F0803141F080E00BC082E009C083E007C09A
S113010084E005C085E003C080E001C081E09091F7
S11301106A01891719F080936A01089580E00895AF
S1130120E2E6F0E08081877F80838FE39FE101979F
S1130130F1F700C000008081886080838FE39FE135
S11301400197F1F700C000008081877F80838FE3EF
S11301509FE10197F1F700C000000895CF93DF936A
S1130160C82FE2E6F0E080818B7F808380818D7FE1
S11301708083D1B18C2F807F83B9D2DF20E1C29FED
S1130180C001112483B9CCDFD3B9DF91CF91089595
S113019082B1806F82B9E1E6F0E08081886080837B
S11301A080818260808380818460808383B1806267
S11301B083B9B6DFB5DFB4DF88E2D0DF88E2CEDF13
S11301C088E2CCDF8CE0CADF81E0C8CF0895CF930A
S11301D0DF93C82FE2E6F0E080818B7F808380810B
S11301E082608083D1B18C2F807F83B999DF20E135
S11301F0C29FC001112483B993DFD3B9DF91CF919A
S11302000895CF93DF93EC0102C0E1DF219688814A
S11302108111FBCFDF91CF910895CF93DF9300D06D
S113022000D0CDB7DEB7603108F06FE090E8998375
S113023090EC9A8390E99B8390ED9C83E1E0F0E05D
S1130240EC0FFD1FE80FF11D8081860F87DF0F90F3
S11302500F900F900F90DF91CF91089580EF87BB9F
S113026081BB0895CF9390916801890FC82FC37003
S113027060E0892FD2DF80E2AADF60E08C2FCDDF3F
S11302808EE3A5DFC0936801CF9108950F931F9368
S1130290CF938C0126D1C82F8F3F39F1833239F1A6
S11302A096DF8091650190916601FC01E05AFE4F52
S11302B0C0838430910511F0CA3281F4FC01E05A04
S11302C0FE4F108280E691E06FD1F8019183808324
S11302D0109266011092650181E00AC00196909324
S11302E066018093650180E003C080E001C080E086
S11302F0CF911F910F910895CF93DF9300D000D039
S113030000D0CDB7DEB780916701813051F41092EF
S1130310670180916B0190916C0190935F018093D0
S11303205E0180915C0190915D01883C910569F5C5
S113033010925D0110925C0161E081E06EDF4AE0A1
S1130340BE016F5F7F4F80915E0190915F0149D143
S1130350CE01019656DF80915E0190915F0120915C
S11303606D0130916E018217930749F480916B01FE
S113037090916C0190935F0180935E010BC0019793
S113038090935F0180935E0105C0019690935D0197
S113039080935C0126960FB6F894DEBF0FBECDBFE6
S11303A0DF91CF9108951F920F920FB60F921124EF
S11303B00BB60F922F933F934F935F936F937F935B
S11303C08F939F93AF93BF93EF93FF9395DFFF9129
S11303D0EF91BF91AF919F918F917F916F915F91B9
S11303E04F913F912F910F900BBE0F900FBE0F9026
S11303F01F90189561E081E010DF84E491E001DF53
S113040061E081E00ADF85E391E0FBDE8DE691E0C7
S11304103DDF8130D9F761E000DF84E491E0F1DE73
S113042061E081E0FADE8CE391E0EBDE8BE691E0C3
S11304302DDF8130D9F720916D0130916E018091CB
S11304406B0190916C0128173907A4F661E081E0F3
S1130450E4DE82E491E0D5DE81E0809367016DE71C
S113046070E080E890E069C0089560E070E080E0AA
S113047090E063D061E081E0D0DE80E591E0C1CE20
S1130480089580916801813009F4B4CF0895809172
S11304906801813009F4E9CF0895E0DE1ED078DEEA
S11304A013DE18DEEFE3FFE13197F1F700C000003F
S11304B0823061F018F4813031F0F3CF833049F0A9
S11304C0843049F0EECF81E0CDDEEBCF8FEFCADE92
S11304D0E8CFD7DFE6CFDBDFE4CF84B3886784BB24
S11304E0089598E0E0E015C095BB83B38770AFE151
S11304F0BEE41197F1F700C00000863081F021E0DE
S11305002E0F853049F022E02E0F833039F0ED5F55
S1130510990F913448F303C0E22F01C0E22F809178
S11305206901E81739F0E0936901F0E0E050FF4F0A
S11305308081089580910C01089520E030E010C07E
S1130540F901EE0FFF1FEE0FFF1FE20FF31FE35F32
S1130550FE4F408151814817590729F02F5F3F4FC3
S1130560283031056CF3F901EE0FFF1FEE0FFF1F6A
S11305702E0F3F1FF901E35FFE4F828190E09C0143
S1130580220F331F220F331F9381892F90E0880F8E
S1130590991F9481822B892B886083BF12BE82E0CD
S11305A087BF61BF78940895FC0188279927E89450
S11305B021912032E9F3293010F02E30C8F32B3288
S11305C039F02D3231F4689403C015D0820F911D97
S11305D0219120532A30C8F31EF4909581959F4FA2
S11305E00895BB274A3031F4992322F4BDE2909553
S11305F081959F4F09C07AE0979F902D879F802D0A
S1130600910D11240895BB27FB015527AA27880FB4
S1130610991FAA1FA41710F0A41B83955051B9F772
S1130620A05DAA3308F0A95DA193009779F7B111F1
S1130630B1931192CB0100C0DC01FC01672F7191D1
S11306407723E1F7329704C07C916D9370836291B4
S10F0650AE17BF07C8F30895F894FFCF5D
S113065C3132333435363738392A3023FF00000031
S113066C000001000000010800000100200000014E
S113067C01400001000080000100010001010100A3
S113068C000401010153746172743A0053746F7065
S113069C3A00202020202020202020202020200070
S10F06AC53544F50202020202020000038
S903048276
