S01000005A48206D696E74612E7372656339
S113000045C0000060C000005EC000005CC000008D
S11300105AC0000058C0000056C0000054C0000080
S113002052C0000050C000004EC000004CC0000090
S11300304AC0000048C0000046C00000F4C20000EE
S113004042C0000040C000003EC000003CC00000B0
S11300503AC0000038C0000036C0000034C00000C0
S113006032C0000030C000002EC000002CC00000D0
S11300702AC0000028C0000026C0000024C00000E0
S113008022C0000020C000001EC0000011241FBEBA
S1130090CFEFD0E1DEBFCDBF11E0A0E0B1E0E6E1FB
S11300A0F9E000E00BBF02C007900D92A436B1073F
S11300B0D9F721E0A4E6B1E001C01D92A03EB20749
S11300C0E1F752D126C49CCF86B1806886B987B146
S11300D087B986B1876086B9089587B187B986B133
S11300E0806486B986B1806186B9349BFECF84B1C1
S11300F095B10895F2DF9C01220F331F220F331FA5
S1130100ADECBCECB0D3969587959695879596956E
S113011087950895809163008F71B1F0843071F0F8
S113012028F4813099F0823039F004C0883041F0ED
S1130130803141F080E00BC082E009C083E007C059
S113014084E005C085E003C080E001C081E09091B7
S11301507B01891719F080937B01089580E008954D
S1130160E2E6F0E08081877F80838FE99FE001975A
S1130170F1F700C000008081886080838FE99FE0F0
S11301800197F1F700C000008081877F80838FE9A9
S11301909FE00197F1F700C000000895CF93DF932B
S11301A0C82FE2E6F0E080818B7F808380818D7FA1
S11301B08083D1B18C2F807F83B9D2DF20E1C29FAD
S11301C0C001112483B9CCDFD3B9DF91CF91089555
S11301D082B1806F82B9E1E6F0E08081886080833B
S11301E080818260808380818460808383B1806227
S11301F083B9B6DFB5DFB4DF88E2D0DF88E2CEDFD3
S113020088E2CCDF8CE0CACF0895CF93DF93C82F68
S1130210E2E6F0E080818B7F80838081826080834E
S1130220D1B18C2F807F83B99BDF20E1C29FC001B5
S1130230112483B995DFD3B9DF91CF910895CF937A
S1130240DF93EC0102C0E1DF219688818111FBCFAD
S1130250DF91CF910895CF93DF9300D000D0CDB735
S1130260DEB790E8998390EC9A8390E99B8390EDB4
S11302709C83E1E0F0E0EC0FFD1FE80FF11D8081AD
S1130280860F8CDF0F900F900F900F90DF91CF911E
S1130290089582B18C6082B984B3806884BB089568
S11302A0823521F485B3806885BB0895873421F4B1
S11302B083B1886083B90895823419F483B184606A
S11302C083B90895CF93DF934091710150917201E6
S11302D09A01ADECBCECC7D2969587959695879517
S11302E0969587959C01220F331F880F991F880FBD
S11302F0991F880F991F820F931F9A01281B390B8E
S1130300E3E7F1E020839A01AED2EC01D695C795DC
S1130310D695C795D695C7959E01A5D296958795EE
S113032096958795969587959C01220F331F880F84
S1130330991F880F991F880F991F820F931F9E0181
S1130340281B390B21839A013695279536952795D5
S1130350ABE7B4E188D2969587958283DF91CF91FC
S113036008958FEF8ABB089594DFAEDE31DFE4D1C8
S1130370F8DF81E013DF60E080E06DDF86E391E089
S11303805EDF60E083E067DF8BE391E058DF6AEFD4
S113039070E080E490E01DD2BDDEC82FD1D1CC2323
S11303A009F4CDC0C33071F481E080936A0160E048
S11303B052DF84E491E043DF60E081E04CDF8AE4D3
S11303C091E03DDFC43011F510926A0160E081E0F4
S11303D042DF84E491E033DF60E081E03CDF80E5EC
S11303E091E02DDF6BE081E036DF86E491E027DFEA
S11303F06BE081E030DF4AE06CE771E080917101ED
S11304009091720153D28CE791E019DFC53081F4E9
S1130410109272011092710160E081E01CDF84E4AB
S113042091E00DDF60E081E016DF85E591E007DF14
S1130430C13009F084C064E080E00DDFC4E0D0E0A6
S11304407AC0C130D10509F072C064DE8230E9F7A8
S1130450EDE6F1E02081818190E0AC01440F551F6D
S1130460880F991F880F991F880F991F840F951F54
S1130470820F911D228134E6239F800D911D11244A
S113048090936C0180936B01883E23E09207B8F54A
S1130490209168012223F1F08F31924061F485B3F9
S11304A08F7785BB83B1877F83B983B18B7F83B912
S11304B087E4F6DE0FC085B38F7785BB83B1877F72
S11304C083B983B18B7F83B983B1877F83B981E09B
S11304D08093690160E081E0BEDE84E491E0AFDEF8
S11304E060E081E0B8DE8AE591E0A9DE80916B01ED
S11304F090916C01909372018093710118C060E037
S113050081E0A9DE84E491E09ADE60E081E0A3DE8C
S11305108DE591E094DE0BC013D18F3F41F0FE01D5
S1130520E559FE4F90ED980F90836FDE03C0C23003
S1130530D10594F721971C161D060CF482CF9091D7
S11305407801809177019817A9F060E082E083DE5A
S113055085E491E074DE60E082E07DDEC0E0D0E01E
S113056003C08AE252DE21968091770190E0C81799
S1130570D907BCF380917101909172018536910580
S113058038F4209177012093780121E020937701BA
S11305909C01255631092639310538F4209177011B
S11305A02093780122E0209377019C012B5F31098D
S11305B02A3F310538F4209177012093780123E014
S11305C020937701855F9140833F914008F0E4CE0A
S11305D0809177018093780184E080937701DCCE69
S11305E090E1699FB0011124862B682F60686BBB72
S11305F0089560916601709167016F5F7F4F63702A
S11306007078772334F4615071096C6F7F6F6F5F7A
S11306107F4F7093670160936601FB01ED58FE4FB5
S11306208081DECF08951F920F920FB60F9211248E
S11306300BB60F922F933F934F935F936F937F93D8
S11306408F939F93AF93BF93EF93FF93D2DF8091E8
S1130650790190917A01019690937A0180937901BE
S113066064E670E0EDD0892B59F444DD20916401F7
S113067030916501280F311D309365012093640189
S11306808091790190917A01843F914009F041C0B1
S113069080916901882319F085B3805885BB8091C6
S11306A06A01882349F08091710190917201019649
S11306B09093720180937101809171019091720104
S11306C0883E934021F41092720110927101FADD78
S11306D010927A01109279018091640190916501E0
S11306E065E070E0ADD0709365016093640165E0EE
S11306F083E0B1DD4AE06CE771E0809164019091A0
S11307006501D4D08CE791E09ADD109265011092D6
S11307106401FF91EF91BF91AF919F918F917F9170
S11307206F915F914F913F912F910F900BBE0F905E
S11307300FBE0F901F90189584B3886784BB0895EB
S1130740CF93DF93CDB7DEB72D970FB6F894DEBF06
S11307500FBECDBF8DE0E9E2F1E0DE01119601901C
S11307600D928A95E1F790E028E015C025BB83B38C
S11307708770EFE0F7E23197F1F700C000008630B0
S113078081F031E0390F853049F032E0390F8330A0
S113079039F09D5F220F213448F303C0932F01C029
S11307A0932F80910001981751F090930001E1E09C
S11307B0F0E0EC0FFD1FE90FF11D808101C08D8574
S11307C02D960FB6F894DEBF0FBECDBFDF91CF914B
S11307D0089520E030E010C0F901EE0FFF1FEE0F86
S11307E0FF1FE20FF31FEF5FFE4F40815181481757
S11307F0590729F02F5F3F4F283031056CF3F90179
S1130800EE0FFF1FEE0FFF1F2E0F3F1FF901EF5FCB
S1130810FE4F828190E09C01220F331F220F331F71
S11308209381892F90E0880F991F9481822B892BC3
S1130830886083BF12BE82E087BF61BF7894089549
S113084097FB072E16F4009406D077FD08D01AD033
S113085007FC05D03EF4909581959F4F08957095BF
S113086061957F4F0895A29FB001B39FC001A39FDC
S1130870700D811D1124911DB29F700D811D1124D5
S1130880911D0895AA1BBB1B51E107C0AA1FBB1FE2
S1130890A617B70710F0A61BB70B881F991F5A9508
S11308A0A9F780959095BC01CD010895BB274A30E6
S11308B031F4992322F4BDE2909581959F4F01C0B4
S11308C0BB27FB015527AA27880F991FAA1FA41726
S11308D010F0A41B83955051B9F7A05DAA3308F01A
S11308E0A95DA193009779F7B111B1931192CB014E
S11308F000C0DC01FC01672F71917723E1F7329787
S113090004C07C916D9370836291AE17BF07C8F3E6
S10909100895F894FFCFE6
S1130916FF000000000001000000010800000100C3
S113092620000001014000010000800001000100D8
S11309360101010000040101012A3023313233345C
S11309463536373839FF6E756D3A0054656D703A31
S113095620204300202020202000535441525400DC
S113096653544F50004E554C4C004F4B0045525279
S10709764F520000D8
S9030000FC
