:020000040800F2
:1000000000000520012D0008D9120008DF120008A9
:10001000E5120008EB120008F112000800000000D1
:10002000000000000000000000000000F7120008BF
:100030000513000800000000131300082113000836
:10004000512D0008512D0008512D0008512D000898
:10005000512D0008512D0008512D0008512D000888
:10006000512D0008512D0008512D0008512D000878
:10007000512D0008512D0008512D0008512D000868
:10008000512D0008512D0008512D0008512D000858
:10009000512D0008512D0008512D0008512D000848
:1000A000512D0008512D0008512D0008512D000838
:1000B0002D130008512D000841130008512D000890
:1000C000512D0008512D0008512D0008512D000818
:1000D000512D0008512D0008512D0008512D000808
:1000E000512D0008512D0008512D0008512D0008F8
:1000F000512D0008512D0008512D0008512D0008E8
:10010000512D0008512D0008512D0008512D0008D7
:10011000512D0008512D0008512D0008512D0008C7
:10012000512D0008512D0008512D0008512D0008B7
:10013000512D0008512D0008512D0008512D0008A7
:10014000512D0008512D0008512D0008512D000897
:10015000512D0008512D0008512D0008512D000887
:10016000512D0008512D0008512D0008512D000877
:10017000512D0008512D0008512D0008512D000867
:10018000512D0008512D0008512D0008512D000857
:10019000512D0008512D0008512D0008512D000847
:1001A000512D0008512D0008512D0008512D000837
:1001B000512D0008512D0008512D0008512D000827
:0801C000512D0008512D00082B
:1001C80010B5054C237833B9044B13B10448AFF389
:1001D80000800123237010BD2002002000000000D1
:1001E800AC2D000808B5034B1BB103490348AFF316
:1001F800008008BD0000000024020020AC2D00088B
:1002080053B94AB9002908BF00281CBF4FF0FF3175
:100218004FF0FF3000F07AB9ADF1080C6DE904CE6B
:1002280000F006F8DDF804E0DDE9022304B07047C9
:100238002DE9F0478C460D460446089E002B51D107
:100248008A4217466DD9B2FA82FEBEF1000F0BD072
:10025800CEF1200C01FA0EF520FA0CFC02FA0EF78A
:100268004CEA050C00FA0EF44FEA174A250CBCFBC1
:10027800FAF81FFA87F90AFB18CC45EA0C4508FB7F
:1002880009F3AB420AD9ED1908F1FF3280F0238156
:10029800AB4240F22081A8F102083D44ED1AA4B215
:1002A800B5FBFAF00AFB105544EA054400FB09F9CE
:1002B800A14509D9E41900F1FF3380F00A81A1456D
:1002C80040F2078102383C44A4EB090440EA0840A4
:1002D8000021002E61D024FA0EF4002334607360EC
:1002E800BDE8F0878B4207D9002E54D0002186E85C
:1002F80021000846BDE8F087B3FA83F1002940F0F1
:100308008E80AB4202D3824200F2FA80841A65EBF7
:1003180003050120AC46002E3FD086E81010BDE84A
:10032800F08712B90127B7FBF2F7B7FA87FEBEF1DB
:10033800000F34D1EB1B3A0C1FFA87FC0121B3FBE9
:10034800F2F8250C02FB183345EA03450CFB08F3C9
:10035800AB4207D9ED1908F1FF3002D2AB4200F2E7
:10036800D1808046ED1AA3B2B5FBF2F002FB10551E
:1003780043EA05440CFB00FCA44507D9E41900F145
:10038800FF3302D2A44500F2B8801846A4EB0C044F
:1003980040EA08409DE731463046BDE8F087CEF197
:1003A800200405FA0EF307FA0EF720FA04F83A0CBF
:1003B80025FA04F448EA0308B4FBF2F14FEA1845B9
:1003C80002FB11441FFA87FC45EA044501FB0CF3C4
:1003D800AB4200FA0EF409D9ED1901F1FF3080F0B3
:1003E8008A80AB4240F2878002393D44EB1A1FFAFB
:1003F80088F5B3FBF2F002FB103345EA034500FB36
:100408000CF3AB4207D9ED1900F1FF386FD2AB42BC
:100418006DD902383D44EB1A40EA01418FE7C1F13A
:10042800200722FA07F88B4005FA01F448EA03038B
:1004380020FA07FE4FEA134CFD404EEA040EB5FBC6
:10044800FCF94FEA1E440CFB19551FFA83F844EADD
:10045800054509FB08F4AC4202FA01F200FA01FA78
:1004680008D9ED1809F1FF3043D2AC4241D9A9F1BE
:1004780002091D442D1B1FFA8EFEB5FBFCF00CFB78
:1004880010554EEA054400FB08F8A04507D9E418C2
:1004980000F1FF3529D2A04527D902381C4440EA8B
:1004A8000940A4EB0804A0FB02894C45C6464D460A
:1004B80015D312D056B1BAEB0E0364EB050404FA57
:1004C80007F7CB401F43CC40376074600021BDE87C
:1004D800F0871846F8E69046E0E6C245EAD2B8EB5F
:1004E800020E69EB03050138E4E72846D7E74046E2
:1004F80091E78146BEE7014678E702383C4445E784
:10050800084608E7A8F102083D442BE7704700BFFA
:1005180080B582B000AF78607B681A68844B1B682E
:100528009A4205D1834B1B78002B01D000F07EFD49
:100538007B681A68804B1B689A4240F0F4807F4BB6
:100548001B8801339AB27D4B1A807C4B1B8842F280
:100558001072934205D17A4B00221A70774B002211
:100568001A80764B1B8841F28832934240F2A88069
:10057800744B1B780133DAB2724B1A70714B1B78CB
:10058800642B0FD16E4B1B780133DAB26C4B1A70A7
:100598006B4B1B78322B02D1694B00221A70694BC6
:1005A80000221A70664B1A78664B1B789A4243D918
:1005B800604B1B78002B18D101228021624801F082
:1005C8007FFA01220821614801F07AFA01222021EC
:1005D8005F4801F075FA012280215E4801F070FA47
:1005E800012201215C4801F06BFA5C4B1B78002B5F
:1005F80005D001224FF48051574801F061FA574B5A
:100608005B78002B05D001224FF400414E4801F0E1
:1006180057FA524B1B79002B04D0012220214D4858
:1006280001F04EFA4E4B1B78002B7CD00122402162
:10063800484801F045FA76E03E4B1B78002B18D16C
:1006480000228021404801F03BFA002208213F485F
:1006580001F036FA002220213D4801F031FA00224B
:1006680080213C4801F02CFA002201213A4801F08F
:1006780027FA3A4B1B78002B05D000224FF4805103
:10068800354801F01DFA354B5B78002B05D0002268
:100698004FF400412C4801F013FA304B1B79002B22
:1006A80004D0002220212B4801F00AFA2C4B1B7899
:1006B800002B38D000224021264801F001FA32E010
:1006C800284B1B780133DAB2264B1A70254B1B785E
:1006D800642B0FD1244B1B780133DAB2224B1A70EA
:1006E800214B1B78322B02D11F4B00221A701D4B55
:1006F80000221A701C4B1A781A4B1B789A4209D997
:10070800174B1B78002B0ED001222021174801F02F
:10071800D7F908E0124B1B78002B04D000222021C7
:10072800124801F0CDF900BF0837BD4680BD00BFB3
:1007380094020020100200204802002042020020FB
:100748004002002044020020000C02400008024041
:100758000010024000000240001402400000002087
:100768004602002045020020410200200004024009
:1007780080B582B000AF00F017FD00F0F9FD00F081
:100788001FF900F015FA00F077F900F0C3F9804876
:1007980001F04EFE7F4801F04BFE0023BB710023A1
:1007A8007B7100237B714FF400517B4801F070F995
:1007B8000346002B0AD100BF4FF40051764801F0E0
:1007C80067F90346002BF7D001237B714FF40071C2
:1007D800724801F05DF90346002B0AD100BF4FF4BF
:1007E80000716E4801F054F90346002BF7D002233C
:1007F8007B714FF400516A4801F04AF90346002B17
:1008080000F0908000BF4FF40051654801F040F9B6
:100818000346002BF7D1FB790133002B03F00103CA
:10082800B8BF5B42FB71FB79002B02D0012B07D0CC
:1008380078E05C4B01221A705B4B00221A6071E071
:1008480000220821594801F03BF90022802158482C
:1008580001F036F900220121514801F031F9002256
:100868004021534801F02CF9002208214C4801F09E
:1008780027F9002220214E4801F022F90022082100
:10088800454801F01DF900221021494801F018F9E6
:1008980000228021454801F013F9002210213F4829
:1008A80001F00EF9002204213B4801F009F9002269
:1008B80020213A4801F004F900220221364801F0CB
:1008C800FFF800224021354801F0FAF80022012102
:1008D800314801F0F5F800220821304801F0F0F81D
:1008E800002280212E4801F0EBF800221021314827
:1008F80001F0E6F8002210212C4801F0E1F800226E
:100908004FF48051244801F0DBF800224FF40041F5
:10091800274801F0D5F8234B00221A70224B0022F9
:100928001A6000BF7B79002B3FF43BAF224B1B784A
:10093800002B0FD1BB79002B0CD17B79BB711E4BDF
:1009480001221A7000222021184801F0B9F81B4B27
:1009580000221A71184B1B78002B3FF422AFBA798A
:100968007B799A423FF41DAF0023BB71124B0022E2
:100978001A70002240210D4801F0A2F8002220211F
:100988000C4801F09DF80D4B01221A7109E700BFD0
:100998009402002048020020001402400010024087
:1009A80000080240100200203C0200200000024023
:1009B800000C024000040240460200200000002013
:1009C80080B594B000AF07F120033022002118460B
:1009D80002F0E0F907F10C0300221A605A609A60ED
:1009E800DA601A61224A224B1B6C43F0805313646D
:1009F8001F4B1B6C03F08053BB60BB681D4A1D4B2B
:100A08001B6823F4404343F480431360194B1B686D
:100A180003F440437B607B6802233B620123FB6253
:100A280010233B630023BB6307F12003184601F042
:100A380061F80346002B01D000F0E2FB0F23FB60B6
:100A480000233B6100237B610023BB610023FB6122
:100A580007F10C030021184601F0F0FA0346002BB9
:100A680001D000F0CDFB00BF5037BD4680BD00BFB0
:100A7800003802400070004080B588B000AF07F130
:100A8800100300221A605A609A60DA603B1D002247
:100A98001A605A609A601E4B4FF080421A601C4BD5
:100AA80040F23F625A601A4B00229A60184B41F29A
:100AB8008732DA60164B00221A61154B00229A61C0
:100AC800134801F05DFC0346002B01D000F098FBB1
:100AD8004FF480533B6107F1100319460C4801F0AD
:100AE8003FFE0346002B01D000F08AFB00237B6009
:100AF8000023FB603B1D1946054802F051F80346E8
:100B0800002B01D000F07CFB00BF2037BD4680BD24
:100B18009402002080B588B000AF07F110030022CE
:100B28001A605A609A60DA603B1D00221A605A60A7
:100B38009A601D4B1D4A1A601B4B40F23F625A6077
:100B4800194B00229A60184B0122DA60164B0022DA
:100B58001A61154B00229A61134801F011FC0346F3
:100B6800002B01D000F04CFB4FF480533B6107F1A0
:100B7800100319460C4801F0F3FD0346002B01D081
:100B880000F03EFB00237B600023FB603B1D194601
:100B9800054802F005F80346002B01D000F030FBB1
:100BA80000BF2037BD4680BD480200200008004035
:100BB80080B58CB000AF07F11C0300221A605A60A0
:100BC8009A60DA601A61824A814B1B6B43F010030A
:100BD80013637F4B1B6B03F01003BB61BB697C4A3B
:100BE8007B4B1B6B43F004031363794B1B6B03F0C4
:100BF80004037B617B69764A754B1B6B43F02003CA
:100C08001363734B1B6B03F020033B613B69704A12
:100C18006F4B1B6B43F0010313636D4B1B6B03F0AE
:100C28000103FB60FB686A4A694B1B6B43F00203D4
:100C38001363674B1B6B03F00203BB60BB68644A1A
:100C4800634B1B6B43F008031363614B1B6B03F08F
:100C580008037B607B68002278215E4800F030FF43
:100C6800002241F20F015C4800F02AFF002289218E
:100C78005A4800F025FF0022F821594800F020FFCB
:100C8800002244F2B101574800F01AFF002248F24E
:100C9800F001554800F014FF7823FB6101233B6203
:100CA80000237B620023BB6207F11C0319464948F5
:100CB80000F044FD4FF40053FB6100233B62002326
:100CC8007B6207F11C031946444800F037FD41F2E6
:100CD8000F03FB6101233B6200237B620023BB629D
:100CE80007F11C0319463C4800F028FD8923FB61E5
:100CF80001233B6200237B620023BB6207F11C03D4
:100D08001946364800F01AFDF823FB6101233B62BF
:100D180000237B620023BB6207F11C03194630489D
:100D280000F00CFD44F2B103FB6101233B62002398
:100D38007B620023BB6207F11C031946294800F0B7
:100D4800FDFC4FF40053FB6100233B6201237B62EF
:100D580007F11C031946204800F0F0FC4FF400731B
:100D6800FB6100233B6201237B6207F11C031946E8
:100D7800184800F0E3FC4FF48043FB6100233B621A
:100D880000237B6207F11C031946174800F0D6FCC4
:100D980048F2F003FB6101233B6200237B620023DE
:100DA800BB6207F11C0319460F4800F0C7FC082373
:100DB800FB6100233B6200237B6207F11C03194699
:100DC800084800F0BBFC00BF3037BD4680BD00BFFF
:100DD800003802400010024000140240000802409F
:100DE8000000024000040240000C024080B582B0BE
:100DF80000AF7860864B1B681A461A2303FB02F380
:100E08007A6813441B781A460821824800F058FE75
:100E18007F4B1B681A461A2303FB02F37A681344B4
:100E28005B781A4680217C4800F04AFE784B1B68A4
:100E38001A461A2303FB02F37A6813449B781A466E
:100E48000121764800F03CFE714B1B681A461A23B4
:100E580003FB02F37A681344DB781A4640216E4894
:100E680000F02EFE6A4B1B681A461A2303FB02F396
:100E78007A6813441B791A460821684800F020FE56
:100E8800634B1B681A461A2303FB02F37A68134460
:100E98005B791A462021604800F012FE5C4B1B6803
:100EA8001A461A2303FB02F37A6813449B791A46FD
:100EB80008215B4800F004FE554B1B681A461A23AC
:100EC80003FB02F37A6813449B7A1A4610215248AE
:100ED80000F0F6FD4E4B1B681A461A2303FB02F37B
:100EE8007A681344DB7A1A4680214A4800F0E8FD04
:100EF800474B1B681A461A2303FB02F37A6813440C
:100F08001B7B1A461021474800F0DAFD404B1B684E
:100F18001A461A2303FB02F37A681344DB791A464C
:100F280004213F4800F0CCFD394B1B681A461A23B0
:100F380003FB02F37A6813441B7A1A4620213948C6
:100F480000F0BEFD324B1B681A461A2303FB02F35E
:100F58007A6813445B7A1A460221314800F0B0FDE2
:100F68002B4B1B681A461A2303FB02F37A681344B7
:100F78005B7B1A4640212B4800F0A2FD244B1B68DE
:100F88001A461A2303FB02F37A6813449B7B1A461A
:100F98000121234800F094FD1D4B1B681A461A23B3
:100FA80003FB02F37A681344DB7B1A4608211D48C9
:100FB80000F086FD164B1B681A461A2303FB02F342
:100FC8007A6813441B7C1A468021144800F078FD87
:100FD8000F4B1B681A461A2303FB02F37A68134463
:100FE8005B7C1A461021104800F06AFD084B1B680C
:100FF8001A461A2303FB02F37A681344DB7C1A4669
:101008001021044800F05CFD00BF0837BD4680BDD4
:101018003C02002000000240000C02400008024090
:1010280000140240001002400004024080B500AFE6
:10103800564B1B68002B0AD1554B1B78002B03D04D
:101048005448FFF7D3FE02E05348FFF7CFFE4F4B5B
:101058001B68514A1A2101FB03F3134419331A7808
:101068004A4B1B684C491A2000FB03F30B44183306
:101078001B789A4213D2454B1B6847491A2202FB38
:1010880003F20A44193212780132D0B2424A1A21C4
:1010980001FB03F31344193302461A7020E03B4B5B
:1010A8001B683D4A1A2101FB03F31344193300223C
:1010B8001A70364B1B680133344A1360334B1B6874
:1010C8000A2B02D1314B01221A60314B1B78002BBD
:1010D80003D03048FFF78AFE02E02F48FFF786FE6C
:1010E8002A4B1B682C4A1A2101FB03F313441233C1
:1010F8001B78022B03D1294B01221A701AE0234BCB
:101108001B68254A1A2101FB03F3134412331B7889
:10111800012B06D101224FF48051214800F0D0FC68
:1011280008E01E4B00221A7000224FF480511C4820
:1011380000F0C6FC154B1B68174A1A2101FB03F384
:10114800134414331B78022B03D1144B01225A7019
:101158001AE00E4B1B68104A1A2101FB03F31344D3
:1011680014331B78012B06D101224FF400410D489E
:1011780000F0A6FC08E0094B00225A7000224FF448
:101188000041084800F09CFC00BF80BD3C020020E4
:10119800460200200C01002008000020000000206A
:1011A80000140240000C024080B584B000AF3B46FA
:1011B80000221A605A609A60DA6000F047FA012348
:1011C8003B7000237B7000237B601F233B728723C7
:1011D8007B720023BB720023FB7201233B73012344
:1011E8007B730023BB730023FB733B46184600F058
:1011F80061FA042000F040FA00BF1037BD4680BDF8
:1012080080B400AF72B6FEE780B483B000AF0F4A77
:101218000E4B1B6C43F0805313640C4B1B6C03F098
:1012280080537B607B68094A084B5B6C43F48043BE
:101238005364064B5B6C03F480433B603B6800BF20
:101248000C37BD465DF8047B704700BF003802408C
:1012580080B584B000AF78607B681B68B3F1804FBD
:1012680014D1194A184B1B6C43F001031364164B35
:101278001B6C03F00103FB60FB68002200211C20AB
:1012880000F0ADF91C2000F0C6F918E07B681B6877
:101298000E4A934213D10C4A0B4B1B6C43F00403C8
:1012A8001364094B1B6C03F00403BB60BB6800228A
:1012B80000211E2000F093F91E2000F0ACF900BFB9
:1012C8001037BD4680BD00BF00380240000800400E
:1012D80080B400AFFEE780B400AFFEE780B400AF93
:1012E800FEE780B400AFFEE780B400AFFEE780B44D
:1012F80000AF00BFBD465DF8047B704780B400AF07
:1013080000BFBD465DF8047B704780B400AF00BFE6
:10131800BD465DF8047B704780B500AF00F066F805
:1013280000BF80BD80B500AF024801F0F9F800BFEA
:1013380080BD00BF9402002080B500AF024801F0D4
:10134800EFF800BF80BD00BF4802002080B400AFA6
:10135800064A064BD3F8883043F47003C2F8883045
:1013680000BFBD465DF8047B704700BF00ED00E09C
:1013780080B500AF032000F027F90F2000F006F831
:10138800FFF742FF0023184680BD000080B582B0F9
:1013980000AF7860124B1A68124B1B7819464FF44D
:1013A8007A73B3FBF1F3B2FBF3F3184600F041F99B
:1013B8000346002B01D001230EE07B680F2B0AD8CF
:1013C800002279684FF0FF3000F009F9064A7B687F
:1013D8001360002300E0012318460837BD4680BD8E
:1013E800140200201C0200201802002080B400AF64
:1013F800064B1B781A46064B1B681344044A1360B5
:1014080000BFBD465DF8047B704700BF1C0200208A
:10141800E002002080B400AF034B1B681846BD46AD
:101428005DF8047B704700BFE002002080B485B0FF
:1014380000AF78607B6803F00703FB600B4BDB6849
:10144800BB60BA684FF6FF031340BB60FB681A0223
:10145800BB681A43064B1343BB60044ABB68D3609E
:1014680000BF1437BD465DF8047B704700ED00E00F
:101478000000FA0580B400AF044BDB681B0A03F0D8
:1014880007031846BD465DF8047B704700ED00E091
:1014980080B483B000AF0346FB7197F90730002B87
:1014A8000BDB094997F907305B09FA7902F01F024B
:1014B800012000FA02F241F8232000BF0C37BD4694
:1014C8005DF8047B704700BF00E100E080B483B0A2
:1014D80000AF03463960FB7197F90730002B0ADB30
:1014E8000D4997F907303A68D2B21201D2B20B44CB
:1014F80083F800230AE00949FB7903F00F03043B52
:101508003A68D2B21201D2B20B441A7600BF0C3735
:10151800BD465DF8047B704700E100E000ED00E0A7
:1015280080B489B000AFF860B9607A60FB6803F0F6
:101538000703FB61FB69C3F10703042B28BF0423DE
:10154800BB61FB690433062B02D9FB69033B00E04E
:1015580000237B610122BB6902FA03F35A1EBB68B0
:101568001A407B699A4001217B6901FA03F3591EED
:101578007B680B40134318462437BD465DF8047B4F
:101588007047000080B582B000AF78607B68013B8F
:10159800B3F1807F01D301230FE00A4A7B68013B46
:1015A80053600F214FF0FF30FFF790FF054B0022EB
:1015B8009A60044B07221A60002318460837BD4674
:1015C80080BD00BF10E000E080B582B000AF786059
:1015D8007868FFF72BFF00BF0837BD4680BD80B590
:1015E80086B000AF0346B9607A60FB7300237B6165
:1015F800FFF740FF78617A68B9687869FFF790FF6C
:10160800024697F90F3011461846FFF75FFF00BFF3
:101618001837BD4680BD80B582B000AF0346FB7168
:1016280097F907301846FFF733FF00BF0837BD4664
:1016380080BD80B582B000AF78607868FFF7A2FF00
:10164800034618460837BD4680BD000080B400AF89
:10165800BFF35F8F064A064B5B6A23F480335362FD
:10166800044B00225A6000BFBD465DF8047B7047FA
:1016780000ED00E090ED00E080B483B000AF78604A
:101688000A4A7B6843F001035360094A084B5B6AC6
:1016980043F480335362BFF34F8FBFF36F8F00BFA4
:1016A8000C37BD465DF8047B704700BF90ED00E045
:1016B80000ED00E080B483B000AF78601E4A7B681C
:1016C8005B7893607B681B78002B28D01A4A7B686C
:1016D8005B68D36018497B681B7B1A077B68DB7AD9
:1016E8001B061A437B689B7ADB041A437B685B7B87
:1016F8009B041A437B689B7B5B041A437B68DB7BF8
:101708001B041A437B685B7A1B021A437B681B7AAB
:101718005B0013437A68127813430B6105E0064BAC
:101728000022DA60044B00221A6100BF0C37BD4664
:101738005DF8047B704700BF90ED00E080B489B08D
:1017480000AF786039600023FB6100237B610023D0
:101758003B610023BB610023FB6175E10122FB694A
:1017680002FA03F37B613B681A687B6913403B61AB
:101778003A697B699A4240F064813B685B6803F090
:101788000303012B05D03B685B6803F00303022BBE
:1017980030D17B689B68BB61FB695B00032202FA5E
:1017A80003F3DB43BA691340BB613B68DA68FB6942
:1017B8005B0002FA03F3BA691343BB617B68BA6939
:1017C8009A607B685B68BB610122FB6902FA03F3DC
:1017D800DB43BA691340BB613B685B681B0903F0D4
:1017E8000102FB6902FA03F3BA691343BB617B6820
:1017F800BA695A603B685B6803F00303032B17D090
:101808007B68DB68BB61FB695B00032202FA03F3B8
:10181800DB43BA691340BB613B689A68FB695B00AC
:1018280002FA03F3BA691343BB617B68BA69DA60E9
:101838003B685B6803F00303022B23D1FB69DA08DA
:101848007B68083253F82230BB61FB6903F0070359
:101858009B000F2202FA03F3DB43BA691340BB6112
:101868003B681A69FB6903F007039B0002FA03F35C
:10187800BA691343BB61FB69DA087B680832B96946
:1018880043F822107B681B68BB61FB695B0003227D
:1018980002FA03F3DB43BA691340BB613B685B6838
:1018A80003F00302FB695B0002FA03F3BA6913430E
:1018B800BB617B68BA691A603B685B6803F44033B4
:1018C800002B00F0BE80654A644B5B6C43F4804398
:1018D8005364624B5B6C03F48043FB60FB68604AB3
:1018E800FB699B08023352F82330BB61FB6903F0A4
:1018F80003039B000F2202FA03F3DB43BA69134088
:10190800BB617B68574A934237D07B68564A9342FB
:1019180031D07B68554A93422BD07B68544A934216
:1019280025D07B68534A93421FD07B68524A934222
:1019380019D07B68514A934213D07B68504A93422E
:101948000DD07B684F4A934207D07B684E4A93423A
:1019580001D1092312E00A2310E008230EE007232F
:101968000CE006230AE0052308E0042306E003232D
:1019780004E0022302E0012300E00023FA6902F0F8
:10198800030292009340BA691343BB613449FB696F
:101998009B080233BA6941F823203C4B9B68BB6122
:1019A8003B69DB43BA691340BB613B685B6803F47E
:1019B8008013002B03D0BA693B691343BB61334AD8
:1019C800BB699360314BDB68BB613B69DB43BA6938
:1019D8001340BB613B685B6803F40013002B03D022
:1019E800BA693B691343BB61284ABB69D360274B7B
:1019F8005B68BB613B69DB43BA691340BB613B6809
:101A08005B6803F40033002B03D0BA693B691343C6
:101A1800BB611E4ABB6953601C4B1B68BB613B69B9
:101A2800DB43BA691340BB613B685B6803F48033EE
:101A3800002B03D0BA693B691343BB61134ABB69E6
:101A48001360FB690133FB61FB690F2B7FF686AEE0
:101A580000BF2437BD465DF8047B7047003802405C
:101A68000038014000000240000402400008024023
:101A7800000C02400010024000140240001802400E
:101A8800001C02400020024000240240003C0140AB
:101A980080B485B000AF78600B467B807B681A699C
:101AA8007B881340002B02D00123FB7301E0002345
:101AB800FB73FB7B18461437BD465DF8047B704703
:101AC80080B483B000AF78600B467B8013467B7090
:101AD8007B78002B03D07A887B689A6103E07B8847
:101AE8001A047B689A6100BF0C37BD465DF8047B19
:101AF8007047000080B586B000AF78600023FB75A2
:101B08007B68002B01D1012391E27B681B6803F0FD
:101B18000103002B00F08780964B9B6803F00C03B1
:101B2800042B0CD0934B9B6803F00C03082B12D1A9
:101B3800904B5B6803F48003B3F5800F0BD18D4B9A
:101B48001B6803F40033002B6CD07B685B68002BA8
:101B580068D101236BE27B685B68B3F5803F06D1EF
:101B6800844A844B1B6843F4803313602EE07B68FF
:101B78005B68002B0CD17F4A7E4B1B6823F48033B3
:101B880013607C4A7B4B1B6823F4802313601DE0A1
:101B98007B685B68B3F5A02F0CD1764A754B1B6840
:101BA80043F480231360734A724B1B6843F48033F9
:101BB80013600BE06F4A6F4B1B6823F4803313608C
:101BC8006C4A6C4B1B6823F4802313607B685B684A
:101BD800002B13D0FFF71EFC386108E0FFF71AFC52
:101BE80002463B69D31A642B01D903231FE2614BD8
:101BF8001B6803F40033002BF0D014E0FFF70AFC55
:101C0800386108E0FFF706FC02463B69D31A642BEB
:101C180001D903230BE2574B1B6803F40033002B55
:101C2800F0D100E000BF7B681B6803F00203002BC3
:101C380069D0504B9B6803F00C03002B0BD04D4B25
:101C48009B6803F00C03082B1CD14A4B5B6803F418
:101C58008003002B16D1474B1B6803F00203002BAF
:101C680005D07B68DB68012B01D00123DFE1414906
:101C7800404B1B6823F0F8027B681B69DB001343A9
:101C88000B6040E07B68DB68002B23D0394A394B76
:101C98001B6843F001031360FFF7BCFB386108E0E1
:101CA800FFF7B8FB02463B69D31A022B01D903237D
:101CB800BDE1304B1B6803F00203002BF0D02D4927
:101CC8002C4B1B6823F0F8027B681B69DB0013436D
:101CD8000B6018E0274A274B1B6823F001031360A9
:101CE800FFF798FB386108E0FFF794FB02463B6971
:101CF800D31A022B01D9032399E11E4B1B6803F069
:101D08000203002BF0D17B681B6803F00803002B4B
:101D180038D07B685B69002B19D0164A154B5B6F6E
:101D280043F001035367FFF775FB386108E0FFF7DD
:101D380071FB02463B69D31A022B01D9032376E1D2
:101D48000C4B5B6F03F00203002BF0D01AE0094A3A
:101D5800084B5B6F23F001035367FFF75BFB3861A8
:101D68000AE0FFF757FB02463B69D31A022B03D957
:101D780003235CE100380240914B5B6F03F00203E0
:101D8800002BEED17B681B6803F00403002B00F0E6
:101D9800A4808B4B1B6C03F08053002B0DD1884A19
:101DA800874B1B6C43F080531364854B1B6C03F00B
:101DB8008053BB60BB680123FB75824B1B6803F42F
:101DC8008073002B18D17F4A7E4B1B6843F48073C5
:101DD8001360FFF71FFB386108E0FFF71BFB0246A3
:101DE8003B69D31A642B01D9032320E1754B1B6887
:101DF80003F48073002BF0D07B689B68012B06D11D
:101E08006F4A6F4B1B6F43F0010313672DE07B682C
:101E18009B68002B0CD16A4A694B1B6F23F00103A6
:101E28001367674A664B1B6F23F0040313671CE0B4
:101E38007B689B68052B0CD1614A614B1B6F43F093
:101E4800040313675E4A5E4B1B6F43F0010313677D
:101E58000BE05B4A5A4B1B6F23F001031367584A88
:101E6800574B1B6F23F0040313677B689B68002B99
:101E780015D0FFF7CFFA38610AE0FFF7CBFA024630
:101E88003B69D31A41F28832934201D90323CEE049
:101E98004B4B1B6F03F00203002BEED014E0FFF74F
:101EA800B9FA38610AE0FFF7B5FA02463B69D31A76
:101EB80041F28832934201D90323B8E0404B1B6FAB
:101EC80003F00203002BEED1FB7D012B05D13C4A28
:101ED8003B4B1B6C23F0805313647B689B69002B7E
:101EE80000F0A480364B9B6803F00C03082B6BD0E2
:101EF8007B689B69022B49D1314A314B1B6823F01F
:101F080080731360FFF786FA386108E0FFF782FAFA
:101F180002463B69D31A022B01D9032387E0284BD9
:101F28001B6803F00073002BF0D125497B68DA6940
:101F38007B681B6A1A437B685B6A9B011A437B6850
:101F48009B6A5B08013B1B041A437B68DB6A1B0620
:101F5800134343F000534B60194A194B1B6843F075
:101F680080731360FFF756FA386108E0FFF752FAFA
:101F780002463B69D31A022B01D9032357E0104BC1
:101F88001B6803F00073002BF0D04FE00C4A0C4B99
:101F98001B6823F080731360FFF73CFA386108E090
:101FA800FFF738FA02463B69D31A022B01D90323FB
:101FB8003DE0034B1B6803F00073002BF0D135E0C4
:101FC80000380240007000401B4B5B68FB607B6878
:101FD8009B69012B28D0FB6803F480027B68DB69CE
:101FE8009A4221D1FB6803F03F027B681B6A9A4240
:101FF8001AD1FA6847F6C07313407A68526A920198
:10200800934211D1FB6803F440327B689B6A5B08FA
:10201800013B1B049A4207D1FB6803F070627B689E
:10202800DB6A1B069A4201D0012300E00023184610
:102038001837BD4680BD00BF0038024080B584B067
:1020480000AF786039600023FB607B68002B01D10A
:102058000123D0E06A4B1B6803F00F023B689A42E9
:1020680010D26749664B1B6823F00F023B68134385
:102078000B60634B1B6803F00F023B689A4201D068
:102088000123B8E07B681B6803F00203002B20D013
:102098007B681B6803F00403002B05D0594A594B91
:1020A8009B6843F4E05393607B681B6803F0080364
:1020B800002B05D0534A534B9B6843F4604393600D
:1020C8005049504B9B6823F0F0027B689B68134390
:1020D8008B607B681B6803F00103002B40D07B6892
:1020E8005B68012B07D1474B1B6803F40033002BB7
:1020F80015D101237FE07B685B68022B07D1414B38
:102108001B6803F00073002B09D1012373E03D4BDA
:102118001B6803F00203002B01D101236BE039494E
:10212800384B9B6823F003027B685B6813438B6022
:10213800FFF770F9F8600AE0FFF76CF90246FB68F0
:10214800D31A41F28832934201D9032353E02D4B2D
:102158009B6803F00C027B685B689B009A42EBD19A
:10216800274B1B6803F00F023B689A4210D9244999
:10217800234B1B6823F00F023B6813430B60204B73
:102188001B6803F00F023B689A4201D0012332E03A
:102198007B681B6803F00403002B08D01949194B0E
:1021A8009B6823F4E0527B68DB6813438B607B6891
:1021B8001B6803F00803002B09D01249114B9B68D8
:1021C80023F460427B681B69DB0013438B6000F0DB
:1021D80021F801460B4B9B681B0903F00F030A4AC1
:1021E800D35C21FA03F3094A1360094B1B681846AC
:1021F800FFF7CCF8002318461037BD4680BD00BF56
:10220800003C024000380240C42D0008140200209F
:10221800180200202DE9F04F87B000AF0022FA60C5
:1022280000227A610022BA6000223A61514A92681B
:1022380002F00C02042A07D0082A08D0002A40F02D
:1022480090804D4B3B618FE04C4B3B618CE0494AA1
:10225800526802F03F02FA60464A526802F480026D
:10226800002A23D0434B5B689B094FF0000440F2DF
:10227800FF114FF0000203EA010304EA02043F4A97
:1022880002FB04F1002202FB03F20A443B49A3FBD0
:10229800010153181946FB684FF000041A462346FB
:1022A800FDF7AEFF03460C467B614CE0314A5268AD
:1022B800920911464FF0000240F2FF154FF0000658
:1022C80005EA010506EA0206294632464FEA421B9C
:1022D8004BEAD16B4FEA411A51465A46AA46B346D1
:1022E80055465E464D1B62EB06062946324694016A
:1022F80044EA91648B015B1A64EB02044FEAC40957
:1023080049EA53794FEAC30843464C4655465E4668
:10231800ED1846EB04062B463446A2027A607A682A
:1023280042EA93527A609B023B6097E8180018468D
:102338002146FB684FF000041A462346FDF760FF6C
:1023480003460C467B610B4B5B681B0C03F00303D5
:1023580001335B00BB607A69BB68B2FBF3F33B6196
:1023680002E0054B3B6100BF3B6918461C37BD4680
:10237800BDE8F08F003802400024F40040787D0169
:1023880080B582B000AF78607B68002B01D1012353
:1023980049E07B6893F83D30DBB2002B06D17B68BF
:1023A800002283F83C207868FEF752FF7B680222FF
:1023B80083F83D207B681A687B6804331946104609
:1023C80000F0B4FA7B68012283F848207B68012278
:1023D80083F83E207B68012283F83F207B68012236
:1023E80083F840207B68012283F841207B68012222
:1023F80083F842207B68012283F843207B6801220E
:1024080083F844207B68012283F845207B680122F9
:1024180083F846207B68012283F847207B680122E5
:1024280083F83D20002318460837BD4680BD0000CC
:1024380080B485B000AF78607B6893F83D30DBB23C
:10244800012B01D0012354E07B68022283F83D2050
:102458007B681B687A681268D26842F00102DA6009
:102468007B681B68264A934222D07B681B68B3F1BD
:10247800804F1DD07B681B68224A934218D07B6826
:102488001B68214A934213D07B681B681F4A9342FA
:102498000ED07B681B681E4A934209D07B681B6874
:1024A8001C4A934204D07B681B681B4A934215D18F
:1024B8007B681B689A68194B1340FB60FB68062B06
:1024C80015D0FB68B3F5803F11D07B681B687A682C
:1024D8001268126842F001021A6008E07B681B6803
:1024E8007A681268126842F001021A6000E000BFC0
:1024F800002318461437BD465DF8047B704700BFBB
:10250800000001400004004000080040000C0040AA
:10251800000401400040014000180040070001008D
:1025280080B582B000AF78607B681B681B6903F0D8
:102538000203022B22D17B681B68DB6803F00203CD
:10254800022B1BD17B681B686FF002021A617B6843
:1025580001221A777B681B689B6903F00303002B31
:1025680003D0786800F0C4F905E0786800F0B6F99F
:10257800786800F0C7F97B6800221A777B681B68C7
:102588001B6903F00403042B22D17B681B68DB68FA
:1025980003F00403042B1BD17B681B686FF0040253
:1025A8001A617B6802221A777B681B689B6903F4AF
:1025B8004073002B03D0786800F09AF905E078683A
:1025C80000F08CF9786800F09DF97B6800221A7792
:1025D8007B681B681B6903F00803082B22D17B6802
:1025E8001B68DB6803F00803082B1BD17B681B689A
:1025F8006FF008021A617B6804221A777B681B68EF
:10260800DB6903F00303002B03D0786800F070F94E
:1026180005E0786800F062F9786800F073F97B6883
:1026280000221A777B681B681B6903F01003102BC4
:1026380022D17B681B68DB6803F01003102B1BD1C9
:102648007B681B686FF010021A617B6808221A7792
:102658007B681B68DB6903F44073002B03D0786840
:1026680000F046F905E0786800F038F9786800F07D
:1026780049F97B6800221A777B681B681B6903F09D
:102688000103012B0ED17B681B68DB6803F0010393
:10269800012B07D17B681B686FF001021A6178680B
:1026A800FDF736FF7B681B681B6903F08003802BEE
:1026B8000ED17B681B68DB6803F08003802B07D191
:1026C8007B681B686FF080021A61786800F000FB75
:1026D8007B681B681B6903F48073B3F5807F0ED198
:1026E8007B681B68DB6803F08003802B07D17B685D
:1026F8001B686FF480721A61786800F0F3FA7B68DF
:102708001B681B6903F04003402B0ED17B681B68D4
:10271800DB6803F04003402B07D17B681B686FF030
:1027280040021A61786800F0F7F87B681B681B693B
:1027380003F02003202B0ED17B681B68DB6803F0B5
:102748002003202B07D17B681B686FF020021A61D9
:10275800786800F0B3FA00BF0837BD4680BD0000B6
:1027680080B584B000AF786039600023FB737B6864
:1027780093F83C30012B01D10223A9E07B680122A8
:1027880083F83C207B68022283F83D207B681B6825
:102798009B68BB60BA68504B1340BB60BB6823F4AE
:1027A8007F43BB607B681B68BA689A603B681B689C
:1027B800402B67D0402B0BD8102B73D0102B02D88E
:1027C800002B6FD077E0202B6CD0302B6AD072E0D2
:1027D800702B0DD0702B04D8502B33D0602B41D0E8
:1027E80069E0B3F5805F69D0B3F5005F17D062E0A8
:1027F8007B6818683B6899683B685A683B68DB687F
:1028080000F0AEF97B681B689B68BB60BB6843F04F
:102818007703BB607B681B68BA689A604FE07B6887
:1028280018683B6899683B685A683B68DB6800F041
:1028380097F97B681B687A681268926842F480424C
:102848009A603CE07B6818683B6859683B68DB68BD
:102858001A4600F00BF97B681B685021184600F0F7
:1028680064F92CE07B6818683B6859683B68DB684A
:102878001A4600F02AF97B681B686021184600F0A8
:1028880054F91CE07B6818683B6859683B68DB684A
:102898001A4600F0EBF87B681B684021184600F0E8
:1028A80044F90CE07B681A683B681B6819461046B7
:1028B80000F03BF903E00123FB7300E000BF7B68F5
:1028C800012283F83D207B68002283F83C20FB7BB3
:1028D80018461037BD4680BD88FFFEFF80B483B020
:1028E80000AF786000BF0C37BD465DF8047B7047C9
:1028F80080B483B000AF786000BF0C37BD465DF888
:10290800047B704780B483B000AF786000BF0C3799
:10291800BD465DF8047B704780B483B000AF786033
:1029280000BF0C37BD465DF8047B704780B485B0A6
:1029380000AF786039607B681B68FB607B68404A41
:10294800934213D07B68B3F1804F0FD07B683D4A28
:1029580093420BD07B683C4A934207D07B683B4A42
:10296800934203D07B683A4A934208D1FB6823F02C
:102978007003FB603B685B68FA681343FB607B6825
:102988002F4A93422BD07B68B3F1804F27D07B68C6
:102998002C4A934223D07B682B4A93421FD07B68F2
:1029A8002A4A93421BD07B68294A934217D07B68F6
:1029B800284A934213D07B68274A93420FD07B68FA
:1029C800264A93420BD07B68254A934207D07B68FE
:1029D800244A934203D07B68234A934208D1FB6878
:1029E80023F44073FB603B68DB68FA681343FB60C1
:1029F800FB6823F080023B685B691343FB607B68DC
:102A0800FA681A603B689A687B68DA623B681A68F9
:102A18007B689A627B680A4A934203D07B680C4AB7
:102A2800934203D13B681A697B681A637B68012269
:102A38005A6100BF1437BD465DF8047B704700BF7C
:102A4800000001400004004000080040000C004065
:102A5800000401400040014000440140004801409A
:102A680000180040001C00400020004080B487B0DF
:102A780000AFF860B9607A60FB681B6A7B61FB682D
:102A88001B6A23F00102FB681A62FB689B693B61C1
:102A98003B6923F0F0033B617B681B013A691343F0
:102AA8003B617B6923F00A037B617A69BB68134346
:102AB8007B61FB683A699A61FB687A691A6200BFB0
:102AC8001C37BD465DF8047B704780B487B000AF03
:102AD800F860B9607A60FB681B6A23F01002FB6833
:102AE8001A62FB689B697B61FB681B6A3B617B69B7
:102AF80023F470437B617B681B037A6913437B6112
:102B08003B6923F0A0033B61BB681B013A6913438F
:102B18003B61FB687A699A61FB683A691A6200BF8F
:102B28001C37BD465DF8047B704780B485B000AFA4
:102B3800786039607B689B68FB60FB6823F07003F2
:102B4800FB603A68FB68134343F00703FB607B684C
:102B5800FA689A6000BF1437BD465DF8047B704779
:102B680080B487B000AFF860B9607A603B60FB68FA
:102B78009B687B617B6923F47F437B613B681A0216
:102B88007B681A43BB6813437A6913437B61FB680C
:102B98007A699A6000BF1C37BD465DF8047B7047B0
:102BA80080B485B000AF786039607B6893F83C30BA
:102BB800012B01D102236DE07B68012283F83C20C0
:102BC8007B68022283F83D207B681B685B68FB609A
:102BD8007B681B689B68BB607B681B68304A9342B4
:102BE80004D07B681B682F4A934208D1FB6823F402
:102BF8007003FB603B685B68FA681343FB60FB6823
:102C080023F07003FB603B681B68FA681343FB60A2
:102C18007B681B68FA685A607B681B68204A934285
:102C280022D07B681B68B3F1804F1DD07B681B687E
:102C38001D4A934218D07B681B681C4A934213D0E4
:102C48007B681B681A4A93420ED07B681B68154A3A
:102C5800934209D07B681B68164A934204D07B686C
:102C68001B68154A93420CD1BB6823F08003BB60F4
:102C78003B689B68BA681343BB607B681B68BA688B
:102C88009A607B68012283F83D207B68002283F8E4
:102C98003C20002318461437BD465DF8047B704776
:102CA800000001400004014000040040000800400A
:102CB800000C0040004001400018004080B483B080
:102CC80000AF786000BF0C37BD465DF8047B7047E5
:102CD80080B483B000AF786000BF0C37BD465DF8A4
:102CE800047B704780B483B000AF786000BF0C37B6
:102CF800BD465DF8047B7047DFF834D00D480E49B7
:102D08000E4A002302E0D458C4500433C4188C423D
:102D1800F9D30B4A0B4C002301E013600432A242A2
:102D2800FBD3FEF713FB00F011F8FDF721FD704708
:102D3800000005200000002020020020E42D0008EB
:102D480020020020E4020020FEE7000070B50D4ECE
:102D58000D4CA41BA4100025A54209D10B4E0C4C08
:102D680000F020F8A41BA4100025A54205D170BDD1
:102D780056F8253098470135EEE756F8253098473C
:102D88000135F2E7DC2D0008DC2D0008DC2D0008F9
:102D9800E02D000802440346934200D1704703F82F
:102DA800011BF9E7F8B500BFF8BC08BC9E467047A0
:0C2DB800F8B500BFF8BC08BC9E46704790
:102DC40000000000000000000102030406070809D7
:082DD40064D4FF7F0100000040
:042DDC00ED010008FD
:042DE000C90100081D
:102DE40000000000010000000100000100000001DB
:102DF40000000100000100000001000100000000CB
:102E040004000101000001000001000000010001B4
:102E140000000001000100000000020000000101A8
:102E24000000000100000100000100000000010199
:102E3400000000000A000001000100000001000081
:102E44000100000100000000020100000000020077
:102E54000001000100000001010001000001010067
:102E64000000020100000000020001000001000057
:102E74000000000101000000000101010000010048
:102E840000000A0001000001000000000100010030
:102E94000000010000010000020000000200010027
:102EA4000001010000000100010100000100000117
:102EB4000000020000000200010000000001010106
:102EC40000000000010100000001000100000000FA
:102ED4000A000100000001000001000000010001DF
:102EE40000000001000100000000020001000001D8
:102EF40000000001000001000001000000010001C9
:102F040000000000040001010000010000010000B5
:102F140000010001000000010001000000000200A7
:102F24000000010100000001000001000001000098
:102F340000000101000000000A000001000100007F
:102F44000001000001000001000000000201000077
:102F54000000020000010001000000010100010066
:102F64000001010000000201000000000200010055
:102F74000001000000000001010000000001000148
:102F84000000010000000A00010000010000000030
:102F94000100010000000100000100000200000027
:102FA4000200010000010100000001000101000015
:102FB4000100000100000200000002000100000006
:102FC40000000101000000000101000000010001F7
:102FD400000000000A0001000000010000010000E0
:102FE40000010001000000010001000000000200D7
:102FF400010000000024F4001000000001000000A3
:0400000508002D01C1
:00000001FF
