:1000000045C000005EC000005CC000005AC0000097
:1000100058C0000056C0000054C0000052C000008C
:1000200050C000004EC000004CC000004AC000009C
:1000300049C0000046C0000044C0000042C00000AB
:1000400028C100003EC000003CC000003AC00000D3
:1000500038C0000036C0000034C0000032C00000CC
:1000600030C000002EC000002CC000002AC00000DC
:1000700028C0000026C0000024C0000022C00000EC
:1000800020C000001EC000001CC0000011241FBEC4
:10009000CFEFD0E1DEBFCDBF11E0A0E0B1E0EAEFED
:1000A000F2E002C005900D92A030B107D9F721E02F
:1000B000A0E0B1E001C01D92A830B207E1F7C1D0C5
:1000C0001AC19ECF1F920F920FB60F9211242F9339
:1000D0003F934F935F936F937F938F939F93AF93D0
:1000E000BF93CF93DF93EF93FF93809102019091A1
:1000F000030101969093030180930201893E93408E
:1001000021F41092030110920201409102015091DA
:1001100003019A01ADECBCECDFD0969587959695DE
:100120008795969587959C01220F331F880F991FFD
:10013000880F991F880F991F820F931F9A01281B00
:10014000390BE4E0F1E020839A01C6D0EC01D695AA
:10015000C795D695C795D695C7959E01BDD096955E
:10016000879596958795969587959C01220F331FC5
:10017000880F991F880F991F880F991F820F931F4F
:100180009E01281B390B21839A01369527953695B8
:100190002795ABE7B4E1A0D0EC01D695C7959E01B9
:1001A000ADECBCEC99D096958795969587959695EC
:1001B00087959C01220F331F880F991F880F991F65
:1001C000880F991F820F931F9E01281B390B2283D2
:1001D0009A01369527953695279536952795A5EC5E
:1001E000B0E27AD0929582958F7089279F70892787
:1001F0008383FF91EF91DF91CF91BF91AF919F9159
:100200008F917F916F915F914F913F912F910F90BF
:100210000FBE0F901F9018958CE08EBD10927A0043
:1002200081E19AE79BBD8ABD87B7806187BF08954A
:1002300083E083BF87B7816087BF08958FEF8ABB54
:100240000895FCDFE9DFF4DF7894FFCF90E1699F48
:10025000B0011124862B682F60686BBB08956091F4
:100260000001709101016F5F7F4F63707078772399
:1002700034F4615071096C6F7F6F6F5F7F4F7093C3
:10028000010160930001FB01EC5FFE4F8081DECF36
:1002900008951F920F920FB60F9211242F933F9340
:1002A0004F935F936F937F938F939F93AF93BF937E
:1002B000EF93FF93D4DFFF91EF91BF91AF919F91A7
:1002C0008F917F916F915F914F913F912F910F90FF
:1002D0000FBE0F901F901895A29FB001B39FC00151
:1002E000A39F700D811D1124911DB29F700D811D62
:0A02F0001124911D0895F894FFCF2A
:00000001FF
